{
  "abi": [
    {
      "inputs": [
        {
          "internalType": "address",
          "name": "_ccipRouter",
          "type": "address"
        },
        {
          "internalType": "address",
          "name": "_uniswapRouter",
          "type": "address"
        }
      ],
      "stateMutability": "nonpayable",
      "type": "constructor"
    },
    {
      "inputs": [
        {
          "internalType": "address",
          "name": "router",
          "type": "address"
        }
      ],
      "name": "InvalidRouter",
      "type": "error"
    },
    {
      "inputs": [
        {
          "components": [
            {
              "internalType": "bytes32",
              "name": "messageId",
              "type": "bytes32"
            },
            {
              "internalType": "uint64",
              "name": "sourceChainSelector",
              "type": "uint64"
            },
            {
              "internalType": "bytes",
              "name": "sender",
              "type": "bytes"
            },
            {
              "internalType": "bytes",
              "name": "data",
              "type": "bytes"
            },
            {
              "components": [
                {
                  "internalType": "address",
                  "name": "token",
                  "type": "address"
                },
                {
                  "internalType": "uint256",
                  "name": "amount",
                  "type": "uint256"
                }
              ],
              "internalType": "struct Client.EVMTokenAmount[]",
              "name": "destTokenAmounts",
              "type": "tuple[]"
            }
          ],
          "internalType": "struct Client.Any2EVMMessage",
          "name": "message",
          "type": "tuple"
        }
      ],
      "name": "ccipReceive",
      "outputs": [],
      "stateMutability": "nonpayable",
      "type": "function"
    },
    {
      "inputs": [],
      "name": "ccipRouter",
      "outputs": [
        {
          "internalType": "address",
          "name": "",
          "type": "address"
        }
      ],
      "stateMutability": "view",
      "type": "function"
    },
    {
      "inputs": [],
      "name": "getRouter",
      "outputs": [
        {
          "internalType": "address",
          "name": "",
          "type": "address"
        }
      ],
      "stateMutability": "view",
      "type": "function"
    },
    {
      "inputs": [
        {
          "internalType": "bytes4",
          "name": "interfaceId",
          "type": "bytes4"
        }
      ],
      "name": "supportsInterface",
      "outputs": [
        {
          "internalType": "bool",
          "name": "",
          "type": "bool"
        }
      ],
      "stateMutability": "pure",
      "type": "function"
    },
    {
      "inputs": [],
      "name": "uniswapRouter",
      "outputs": [
        {
          "internalType": "address",
          "name": "",
          "type": "address"
        }
      ],
      "stateMutability": "view",
      "type": "function"
    }
  ],
  "bytecode": {
    "object": "0x60e060405234801561001057600080fd5b506040516108fd3803806108fd83398101604081905261002f91610097565b816001600160a01b03811661005e576040516335fdcccd60e21b81526000600482015260240160405180910390fd5b6001600160a01b0390811660805291821660a0521660c0526100ca565b80516001600160a01b038116811461009257600080fd5b919050565b600080604083850312156100aa57600080fd5b6100b38361007b565b91506100c16020840161007b565b90509250929050565b60805160a05160c0516107f161010c6000396000818160c801528181610240015261037e015260006089015260008181610101015261016701526107f16000f3fe608060405234801561001057600080fd5b50600436106100575760003560e01c806301ffc9a71461005c5780630de2298414610084578063735de9f7146100c357806385572ffb146100ea578063b0f479a1146100ff575b600080fd5b61006f61006a3660046103f6565b610125565b60405190151581526020015b60405180910390f35b6100ab7f000000000000000000000000000000000000000000000000000000000000000081565b6040516001600160a01b03909116815260200161007b565b6100ab7f000000000000000000000000000000000000000000000000000000000000000081565b6100fd6100f8366004610427565b61015c565b005b7f00000000000000000000000000000000000000000000000000000000000000006100ab565b60006001600160e01b031982166385572ffb60e01b148061015657506001600160e01b031982166301ffc9a760e01b145b92915050565b336001600160a01b037f000000000000000000000000000000000000000000000000000000000000000016146101ab576040516335fdcccd60e21b815233600482015260240160405180910390fd5b6101bc6101b782610644565b6101bf565b50565b600081606001518060200190518101906101d991906106f1565b9050600082608001516000815181106101f4576101f461076a565b60200260200101516000015190506000836080015160008151811061021b5761021b61076a565b602090810291909101810151015160405163a9059cbb60e01b81526001600160a01b037f000000000000000000000000000000000000000000000000000000000000000081166004830152602482018390529192509083169063a9059cbb906044016020604051808303816000875af115801561029c573d6000803e3d6000fd5b505050506040513d601f19601f820116820180604052508101906102c09190610780565b5060408051610100810182526001600160a01b0380851682528551811660208084019182528785015162ffffff9081168587019081526080808b0151861660608089019182524292890192835260a089018b8152958d015160c08a01908152908d0151881660e08a01908152995163414bf38960e01b81528951891660048201529651881660248801529251909316604486015291518516606485015290516084840152905160a48301525160c48201529251811660e484015290917f00000000000000000000000000000000000000000000000000000000000000009091169063414bf38990610104016020604051808303816000875af11580156103ca573d6000803e3d6000fd5b505050506040513d601f19601f820116820180604052508101906103ee91906107a2565b505050505050565b60006020828403121561040857600080fd5b81356001600160e01b03198116811461042057600080fd5b9392505050565b60006020828403121561043957600080fd5b813567ffffffffffffffff81111561045057600080fd5b820160a0818503121561042057600080fd5b634e487b7160e01b600052604160045260246000fd5b6040805190810167ffffffffffffffff8111828210171561049b5761049b610462565b60405290565b60405160a0810167ffffffffffffffff8111828210171561049b5761049b610462565b604051601f8201601f1916810167ffffffffffffffff811182821017156104ed576104ed610462565b604052919050565b803567ffffffffffffffff8116811461050d57600080fd5b919050565b600082601f83011261052357600080fd5b813567ffffffffffffffff81111561053d5761053d610462565b610550601f8201601f19166020016104c4565b81815284602083860101111561056557600080fd5b816020850160208301376000918101602001919091529392505050565b6001600160a01b03811681146101bc57600080fd5b600082601f8301126105a857600080fd5b8135602067ffffffffffffffff8211156105c4576105c4610462565b6105d2818360051b016104c4565b82815260069290921b840181019181810190868411156105f157600080fd5b8286015b84811015610639576040818903121561060e5760008081fd5b610616610478565b813561062181610582565b815281850135858201528352918301916040016105f5565b509695505050505050565b600060a0823603121561065657600080fd5b61065e6104a1565b8235815261066e602084016104f5565b6020820152604083013567ffffffffffffffff8082111561068e57600080fd5b61069a36838701610512565b604084015260608501359150808211156106b357600080fd5b6106bf36838701610512565b606084015260808501359150808211156106d857600080fd5b506106e536828601610597565b60808301525092915050565b600060a0828403121561070357600080fd5b61070b6104a1565b825161071681610582565b815260208381015190820152604083015162ffffff8116811461073857600080fd5b6040820152606083015161074b81610582565b6060820152608083015161075e81610582565b60808201529392505050565b634e487b7160e01b600052603260045260246000fd5b60006020828403121561079257600080fd5b8151801515811461042057600080fd5b6000602082840312156107b457600080fd5b505191905056fea2646970667358221220af001fd96a0cf31c93ab135480a2132ab5357454c7bda15d485afad25fb71f4d64736f6c63430008150033",
    "linkReferences": {}
  },
  "methodIdentifiers": {
    "ccipReceive((bytes32,uint64,bytes,bytes,(address,uint256)[]))": "85572ffb",
    "ccipRouter()": "0de22984",
    "getRouter()": "b0f479a1",
    "supportsInterface(bytes4)": "01ffc9a7",
    "uniswapRouter()": "735de9f7"
  },
  "id": 8
}