{
  "abi": [
    {
      "inputs": [
        {
          "internalType": "address",
          "name": "_ccipRouter",
          "type": "address"
        },
        {
          "internalType": "address",
          "name": "_uniswapRouter",
          "type": "address"
        }
      ],
      "stateMutability": "nonpayable",
      "type": "constructor"
    },
    {
      "inputs": [
        {
          "internalType": "address",
          "name": "router",
          "type": "address"
        }
      ],
      "name": "InvalidRouter",
      "type": "error"
    },
    {
      "inputs": [
        {
          "components": [
            {
              "internalType": "bytes32",
              "name": "messageId",
              "type": "bytes32"
            },
            {
              "internalType": "uint64",
              "name": "sourceChainSelector",
              "type": "uint64"
            },
            {
              "internalType": "bytes",
              "name": "sender",
              "type": "bytes"
            },
            {
              "internalType": "bytes",
              "name": "data",
              "type": "bytes"
            },
            {
              "components": [
                {
                  "internalType": "address",
                  "name": "token",
                  "type": "address"
                },
                {
                  "internalType": "uint256",
                  "name": "amount",
                  "type": "uint256"
                }
              ],
              "internalType": "struct Client.EVMTokenAmount[]",
              "name": "destTokenAmounts",
              "type": "tuple[]"
            }
          ],
          "internalType": "struct Client.Any2EVMMessage",
          "name": "message",
          "type": "tuple"
        }
      ],
      "name": "ccipReceive",
      "outputs": [],
      "stateMutability": "nonpayable",
      "type": "function"
    },
    {
      "inputs": [],
      "name": "ccipRouter",
      "outputs": [
        {
          "internalType": "address",
          "name": "",
          "type": "address"
        }
      ],
      "stateMutability": "view",
      "type": "function"
    },
    {
      "inputs": [],
      "name": "getRouter",
      "outputs": [
        {
          "internalType": "address",
          "name": "",
          "type": "address"
        }
      ],
      "stateMutability": "view",
      "type": "function"
    },
    {
      "inputs": [],
      "name": "lastSwapParams",
      "outputs": [
        {
          "internalType": "address",
          "name": "tokenOut",
          "type": "address"
        },
        {
          "internalType": "uint256",
          "name": "amountOutMinimum",
          "type": "uint256"
        },
        {
          "internalType": "uint24",
          "name": "fee",
          "type": "uint24"
        },
        {
          "internalType": "uint160",
          "name": "sqrtPriceLimitX96",
          "type": "uint160"
        },
        {
          "internalType": "address",
          "name": "receiver",
          "type": "address"
        }
      ],
      "stateMutability": "view",
      "type": "function"
    },
    {
      "inputs": [
        {
          "internalType": "bytes4",
          "name": "interfaceId",
          "type": "bytes4"
        }
      ],
      "name": "supportsInterface",
      "outputs": [
        {
          "internalType": "bool",
          "name": "",
          "type": "bool"
        }
      ],
      "stateMutability": "pure",
      "type": "function"
    },
    {
      "inputs": [
        {
          "internalType": "address",
          "name": "tokenIn",
          "type": "address"
        },
        {
          "internalType": "address",
          "name": "tokenOut",
          "type": "address"
        }
      ],
      "name": "testSwap",
      "outputs": [],
      "stateMutability": "nonpayable",
      "type": "function"
    },
    {
      "inputs": [],
      "name": "uniswapRouter",
      "outputs": [
        {
          "internalType": "address",
          "name": "",
          "type": "address"
        }
      ],
      "stateMutability": "view",
      "type": "function"
    }
  ],
  "bytecode": {
    "object": "0x60e060405234801561001057600080fd5b50604051610a3e380380610a3e83398101604081905261002f91610097565b816001600160a01b03811661005e576040516335fdcccd60e21b81526000600482015260240160405180910390fd5b6001600160a01b0390811660805291821660a0521660c0526100ca565b80516001600160a01b038116811461009257600080fd5b919050565b600080604083850312156100aa57600080fd5b6100b38361007b565b91506100c16020840161007b565b90509250929050565b60805160a05160c05161093161010d600039600081816101750152818161028901526103af0152600060af0152600081816101ac015261043101526109316000f3fe608060405234801561001057600080fd5b506004361061007d5760003560e01c80636c9c20651161005b5780636c9c20651461015b578063735de9f71461017057806385572ffb14610197578063b0f479a1146101aa57600080fd5b806301ffc9a7146100825780630de22984146100aa5780631c195bed146100e9575b600080fd5b610095610090366004610513565b6101d0565b60405190151581526020015b60405180910390f35b6100d17f000000000000000000000000000000000000000000000000000000000000000081565b6040516001600160a01b0390911681526020016100a1565b60005460015460025460035461011c936001600160a01b03908116939262ffffff81169263010000009091048216911685565b604080516001600160a01b039687168152602081019590955262ffffff909316928401929092528316606083015291909116608082015260a0016100a1565b61016e610169366004610559565b610207565b005b6100d17f000000000000000000000000000000000000000000000000000000000000000081565b61016e6101a5366004610592565b610426565b7f00000000000000000000000000000000000000000000000000000000000000006100d1565b60006001600160e01b031982166385572ffb60e01b148061020157506001600160e01b031982166301ffc9a760e01b145b92915050565b6040516370a0823160e01b81523060048201526000906001600160a01b038416906370a0823190602401602060405180830381865afa15801561024e573d6000803e3d6000fd5b505050506040513d601f19601f8201168201806040525081019061027291906105cd565b60405163a9059cbb60e01b81526001600160a01b037f000000000000000000000000000000000000000000000000000000000000000081166004830152602482018390529192509084169063a9059cbb906044016020604051808303816000875af11580156102e5573d6000803e3d6000fd5b505050506040513d601f19601f8201168201806040525081019061030991906105e6565b5060408051610100810182526001600160a01b03858116825284811660208301908152610bb88385019081523360608501908152426080860190815260a08601888152600060c0880181815260e08901918252985163414bf38960e01b8152885188166004820152955187166024870152935162ffffff1660448601529151851660648501525160848401525160a4830152935160c48201529251811660e484015290917f00000000000000000000000000000000000000000000000000000000000000009091169063414bf38990610104016020604051808303816000875af11580156103fb573d6000803e3d6000fd5b505050506040513d601f19601f8201168201806040525081019061041f91906105cd565b5050505050565b336001600160a01b037f00000000000000000000000000000000000000000000000000000000000000001614610475576040516335fdcccd60e21b815233600482015260240160405180910390fd5b610486610481826107d5565b610489565b50565b80606001518060200190518101906104a19190610882565b8051600080546001600160a01b03199081166001600160a01b03938416179091556020830151600155604083015160028054606086015162ffffff9093166001600160b81b03199091161763010000009285169290920291909117905560809092015160038054909316911617905550565b60006020828403121561052557600080fd5b81356001600160e01b03198116811461053d57600080fd5b9392505050565b6001600160a01b038116811461048657600080fd5b6000806040838503121561056c57600080fd5b823561057781610544565b9150602083013561058781610544565b809150509250929050565b6000602082840312156105a457600080fd5b813567ffffffffffffffff8111156105bb57600080fd5b820160a0818503121561053d57600080fd5b6000602082840312156105df57600080fd5b5051919050565b6000602082840312156105f857600080fd5b8151801515811461053d57600080fd5b634e487b7160e01b600052604160045260246000fd5b6040805190810167ffffffffffffffff8111828210171561064157610641610608565b60405290565b60405160a0810167ffffffffffffffff8111828210171561064157610641610608565b604051601f8201601f1916810167ffffffffffffffff8111828210171561069357610693610608565b604052919050565b803567ffffffffffffffff811681146106b357600080fd5b919050565b600082601f8301126106c957600080fd5b813567ffffffffffffffff8111156106e3576106e3610608565b6106f6601f8201601f191660200161066a565b81815284602083860101111561070b57600080fd5b816020850160208301376000918101602001919091529392505050565b600082601f83011261073957600080fd5b8135602067ffffffffffffffff82111561075557610755610608565b610763818360051b0161066a565b82815260069290921b8401810191818101908684111561078257600080fd5b8286015b848110156107ca576040818903121561079f5760008081fd5b6107a761061e565b81356107b281610544565b81528185013585820152835291830191604001610786565b509695505050505050565b600060a082360312156107e757600080fd5b6107ef610647565b823581526107ff6020840161069b565b6020820152604083013567ffffffffffffffff8082111561081f57600080fd5b61082b368387016106b8565b6040840152606085013591508082111561084457600080fd5b610850368387016106b8565b6060840152608085013591508082111561086957600080fd5b5061087636828601610728565b60808301525092915050565b600060a0828403121561089457600080fd5b61089c610647565b82516108a781610544565b815260208381015190820152604083015162ffffff811681146108c957600080fd5b604082015260608301516108dc81610544565b606082015260808301516108ef81610544565b6080820152939250505056fea26469706673582212205764f88a35d1551a26448f64ec446c4b4dc099a75fadda6ba2c3bcca7b58740a64736f6c63430008150033",
    "linkReferences": {}
  },
  "methodIdentifiers": {
    "ccipReceive((bytes32,uint64,bytes,bytes,(address,uint256)[]))": "85572ffb",
    "ccipRouter()": "0de22984",
    "getRouter()": "b0f479a1",
    "lastSwapParams()": "1c195bed",
    "supportsInterface(bytes4)": "01ffc9a7",
    "testSwap(address,address)": "6c9c2065",
    "uniswapRouter()": "735de9f7"
  },
  "id": 10
}