{
  "abi": [
    {
      "inputs": [
        {
          "internalType": "address",
          "name": "_ccipRouter",
          "type": "address"
        },
        {
          "internalType": "address",
          "name": "_uniswapRouter",
          "type": "address"
        }
      ],
      "stateMutability": "nonpayable",
      "type": "constructor"
    },
    {
      "inputs": [
        {
          "internalType": "address",
          "name": "router",
          "type": "address"
        }
      ],
      "name": "InvalidRouter",
      "type": "error"
    },
    {
      "anonymous": false,
      "inputs": [
        {
          "indexed": true,
          "internalType": "bytes32",
          "name": "messageId",
          "type": "bytes32"
        },
        {
          "indexed": true,
          "internalType": "uint64",
          "name": "sourceChainSelector",
          "type": "uint64"
        },
        {
          "indexed": false,
          "internalType": "address",
          "name": "sender",
          "type": "address"
        },
        {
          "indexed": false,
          "internalType": "address",
          "name": "tokenIn",
          "type": "address"
        },
        {
          "indexed": false,
          "internalType": "address",
          "name": "tokenOut",
          "type": "address"
        },
        {
          "indexed": false,
          "internalType": "uint256",
          "name": "amountIn",
          "type": "uint256"
        },
        {
          "indexed": false,
          "internalType": "uint256",
          "name": "amountOut",
          "type": "uint256"
        }
      ],
      "name": "Swap",
      "type": "event"
    },
    {
      "inputs": [
        {
          "components": [
            {
              "internalType": "bytes32",
              "name": "messageId",
              "type": "bytes32"
            },
            {
              "internalType": "uint64",
              "name": "sourceChainSelector",
              "type": "uint64"
            },
            {
              "internalType": "bytes",
              "name": "sender",
              "type": "bytes"
            },
            {
              "internalType": "bytes",
              "name": "data",
              "type": "bytes"
            },
            {
              "components": [
                {
                  "internalType": "address",
                  "name": "token",
                  "type": "address"
                },
                {
                  "internalType": "uint256",
                  "name": "amount",
                  "type": "uint256"
                }
              ],
              "internalType": "struct Client.EVMTokenAmount[]",
              "name": "destTokenAmounts",
              "type": "tuple[]"
            }
          ],
          "internalType": "struct Client.Any2EVMMessage",
          "name": "message",
          "type": "tuple"
        }
      ],
      "name": "ccipReceive",
      "outputs": [],
      "stateMutability": "nonpayable",
      "type": "function"
    },
    {
      "inputs": [],
      "name": "getRouter",
      "outputs": [
        {
          "internalType": "address",
          "name": "",
          "type": "address"
        }
      ],
      "stateMutability": "view",
      "type": "function"
    },
    {
      "inputs": [
        {
          "internalType": "bytes4",
          "name": "interfaceId",
          "type": "bytes4"
        }
      ],
      "name": "supportsInterface",
      "outputs": [
        {
          "internalType": "bool",
          "name": "",
          "type": "bool"
        }
      ],
      "stateMutability": "pure",
      "type": "function"
    },
    {
      "inputs": [],
      "name": "uniswapRouter",
      "outputs": [
        {
          "internalType": "address",
          "name": "",
          "type": "address"
        }
      ],
      "stateMutability": "view",
      "type": "function"
    },
    {
      "stateMutability": "payable",
      "type": "receive"
    }
  ],
  "bytecode": {
    "object": "0x60c060405234801561001057600080fd5b5060405161094c38038061094c83398101604081905261002f91610092565b816001600160a01b03811661005e576040516335fdcccd60e21b81526000600482015260240160405180910390fd5b6001600160a01b039081166080521660a052506100c5565b80516001600160a01b038116811461008d57600080fd5b919050565b600080604083850312156100a557600080fd5b6100ae83610076565b91506100bc60208401610076565b90509250929050565b60805160a0516108556100f76000396000818160960152610306015260008181610101015261016701526108556000f3fe6080604052600436106100435760003560e01c806301ffc9a71461004f578063735de9f71461008457806385572ffb146100d0578063b0f479a1146100f257600080fd5b3661004a57005b600080fd5b34801561005b57600080fd5b5061006f61006a36600461045f565b610125565b60405190151581526020015b60405180910390f35b34801561009057600080fd5b506100b87f000000000000000000000000000000000000000000000000000000000000000081565b6040516001600160a01b03909116815260200161007b565b3480156100dc57600080fd5b506100f06100eb366004610490565b61015c565b005b3480156100fe57600080fd5b507f00000000000000000000000000000000000000000000000000000000000000006100b8565b60006001600160e01b031982166385572ffb60e01b148061015657506001600160e01b031982166301ffc9a760e01b145b92915050565b336001600160a01b037f000000000000000000000000000000000000000000000000000000000000000016146101ab576040516335fdcccd60e21b815233600482015260240160405180910390fd5b6101bc6101b7826106ad565b6101bf565b50565b600081606001518060200190518101906101d9919061075a565b905060006040518061010001604052808460800151600081518110610200576102006107d3565b6020026020010151600001516001600160a01b0316815260200183600001516001600160a01b03168152602001836040015162ffffff16815260200183608001516001600160a01b03168152602001428152602001846080015160008151811061026c5761026c6107d3565b602090810291909101810151810151825284810151828201526060808601516001600160a01b03908116604094850152835163414bf38960e01b815285518216600482015292850151811660248401529284015162ffffff166044830152830151821660648201526080830151608482015260a083015160a482015260c083015160c482015260e0830151821660e48201529192506000917f00000000000000000000000000000000000000000000000000000000000000009091169063414bf38990610104016020604051808303816000875af1158015610352573d6000803e3d6000fd5b505050506040513d601f19601f8201168201806040525081019061037691906107e9565b9050836020015167ffffffffffffffff1684600001517fa27c201a88fd9fc1a2ec2b84777656664cdeedf5c3df3b811ddb4d6c0fa182ef86604001518060200190518101906103c59190610802565b87608001516000815181106103dc576103dc6107d3565b60200260200101516000015187600001518960800151600081518110610404576104046107d3565b602002602001015160200151876040516104519594939291906001600160a01b03958616815293851660208501529190931660408301526060820192909252608081019190915260a00190565b60405180910390a350505050565b60006020828403121561047157600080fd5b81356001600160e01b03198116811461048957600080fd5b9392505050565b6000602082840312156104a257600080fd5b813567ffffffffffffffff8111156104b957600080fd5b820160a0818503121561048957600080fd5b634e487b7160e01b600052604160045260246000fd5b6040805190810167ffffffffffffffff81118282101715610504576105046104cb565b60405290565b60405160a0810167ffffffffffffffff81118282101715610504576105046104cb565b604051601f8201601f1916810167ffffffffffffffff81118282101715610556576105566104cb565b604052919050565b803567ffffffffffffffff8116811461057657600080fd5b919050565b600082601f83011261058c57600080fd5b813567ffffffffffffffff8111156105a6576105a66104cb565b6105b9601f8201601f191660200161052d565b8181528460208386010111156105ce57600080fd5b816020850160208301376000918101602001919091529392505050565b6001600160a01b03811681146101bc57600080fd5b600082601f83011261061157600080fd5b8135602067ffffffffffffffff82111561062d5761062d6104cb565b61063b818360051b0161052d565b82815260069290921b8401810191818101908684111561065a57600080fd5b8286015b848110156106a257604081890312156106775760008081fd5b61067f6104e1565b813561068a816105eb565b8152818501358582015283529183019160400161065e565b509695505050505050565b600060a082360312156106bf57600080fd5b6106c761050a565b823581526106d76020840161055e565b6020820152604083013567ffffffffffffffff808211156106f757600080fd5b6107033683870161057b565b6040840152606085013591508082111561071c57600080fd5b6107283683870161057b565b6060840152608085013591508082111561074157600080fd5b5061074e36828601610600565b60808301525092915050565b600060a0828403121561076c57600080fd5b61077461050a565b825161077f816105eb565b815260208381015190820152604083015162ffffff811681146107a157600080fd5b604082015260608301516107b4816105eb565b606082015260808301516107c7816105eb565b60808201529392505050565b634e487b7160e01b600052603260045260246000fd5b6000602082840312156107fb57600080fd5b5051919050565b60006020828403121561081457600080fd5b8151610489816105eb56fea264697066735822122065911de27ce89cba2ff514ec59610dd2cb60cd43c8d07570dc9957107c12b57064736f6c63430008150033",
    "linkReferences": {}
  },
  "methodIdentifiers": {
    "ccipReceive((bytes32,uint64,bytes,bytes,(address,uint256)[]))": "85572ffb",
    "getRouter()": "b0f479a1",
    "supportsInterface(bytes4)": "01ffc9a7",
    "uniswapRouter()": "735de9f7"
  },
  "id": 7
}