{
  "abi": [
    {
      "inputs": [],
      "name": "EVM_EXTRA_ARGS_V1_TAG",
      "outputs": [
        {
          "internalType": "bytes4",
          "name": "",
          "type": "bytes4"
        }
      ],
      "stateMutability": "view",
      "type": "function"
    }
  ],
  "bytecode": {
    "object": "0x6098610038600b82828239805160001a607314602b57634e487b7160e01b600052600060045260246000fd5b30600052607381538281f3fe730000000000000000000000000000000000000000301460806040526004361060335760003560e01c80633ab8c0d0146038575b600080fd5b60456397a657c960e01b81565b6040516001600160e01b0319909116815260200160405180910390f3fea26469706673582212206e989c9c9dba6a30f93fec989c53dce1288f13dec6a3692c85bb6a895542ee7f64736f6c63430008150033",
    "linkReferences": {}
  },
  "methodIdentifiers": {
    "EVM_EXTRA_ARGS_V1_TAG()": "3ab8c0d0"
  },
  "id": 2
}