{
  "abi": [
    {
      "inputs": [
        {
          "internalType": "address",
          "name": "_ccipRouter",
          "type": "address"
        }
      ],
      "stateMutability": "nonpayable",
      "type": "constructor"
    },
    {
      "inputs": [],
      "name": "ccipRouter",
      "outputs": [
        {
          "internalType": "address",
          "name": "",
          "type": "address"
        }
      ],
      "stateMutability": "view",
      "type": "function"
    },
    {
      "inputs": [
        {
          "internalType": "uint64",
          "name": "_destinationChainSelector",
          "type": "uint64"
        },
        {
          "internalType": "address",
          "name": "_receiver",
          "type": "address"
        },
        {
          "components": [
            {
              "internalType": "address",
              "name": "tokenOut",
              "type": "address"
            },
            {
              "internalType": "uint256",
              "name": "amountOutMinimum",
              "type": "uint256"
            },
            {
              "internalType": "uint24",
              "name": "fee",
              "type": "uint24"
            },
            {
              "internalType": "uint160",
              "name": "sqrtPriceLimitX96",
              "type": "uint160"
            },
            {
              "internalType": "address",
              "name": "receiver",
              "type": "address"
            }
          ],
          "internalType": "struct ICrossSwap.SwapParams",
          "name": "_swapParams",
          "type": "tuple"
        },
        {
          "internalType": "address",
          "name": "_token",
          "type": "address"
        },
        {
          "internalType": "uint256",
          "name": "_amount",
          "type": "uint256"
        }
      ],
      "name": "swapWithNative",
      "outputs": [
        {
          "internalType": "bytes32",
          "name": "messageId",
          "type": "bytes32"
        }
      ],
      "stateMutability": "payable",
      "type": "function"
    },
    {
      "inputs": [
        {
          "internalType": "uint64",
          "name": "_destinationChainSelector",
          "type": "uint64"
        },
        {
          "internalType": "address",
          "name": "_receiver",
          "type": "address"
        },
        {
          "components": [
            {
              "internalType": "address",
              "name": "tokenOut",
              "type": "address"
            },
            {
              "internalType": "uint256",
              "name": "amountOutMinimum",
              "type": "uint256"
            },
            {
              "internalType": "uint24",
              "name": "fee",
              "type": "uint24"
            },
            {
              "internalType": "uint160",
              "name": "sqrtPriceLimitX96",
              "type": "uint160"
            },
            {
              "internalType": "address",
              "name": "receiver",
              "type": "address"
            }
          ],
          "internalType": "struct ICrossSwap.SwapParams",
          "name": "swapParams",
          "type": "tuple"
        },
        {
          "internalType": "address",
          "name": "_token",
          "type": "address"
        },
        {
          "internalType": "uint256",
          "name": "_amount",
          "type": "uint256"
        },
        {
          "internalType": "address",
          "name": "_feeToken",
          "type": "address"
        }
      ],
      "name": "swapWithToken",
      "outputs": [
        {
          "internalType": "bytes32",
          "name": "messageId",
          "type": "bytes32"
        }
      ],
      "stateMutability": "nonpayable",
      "type": "function"
    },
    {
      "stateMutability": "payable",
      "type": "receive"
    }
  ],
  "bytecode": {
    "object": "0x60a060405234801561001057600080fd5b50604051610b61380380610b6183398101604081905261002f91610040565b6001600160a01b0316608052610070565b60006020828403121561005257600080fd5b81516001600160a01b038116811461006957600080fd5b9392505050565b608051610aca6100976000396000818160560152818160f801526103fa0152610aca6000f3fe6080604052600436106100385760003560e01c80630de229841461004457806345b3c9c0146100955780635b15139b146100c357600080fd5b3661003f57005b600080fd5b34801561005057600080fd5b506100787f000000000000000000000000000000000000000000000000000000000000000081565b6040516001600160a01b0390911681526020015b60405180910390f35b3480156100a157600080fd5b506100b56100b03660046107d4565b6100d6565b60405190815260200161008c565b6100b56100d136600461084d565b6103d7565b6000806100e687878787876105fa565b6040516320487ded60e01b81529091507f0000000000000000000000000000000000000000000000000000000000000000906000906001600160a01b038316906320487ded9061013c908d9087906004016108f6565b602060405180830381865afa158015610159573d6000803e3d6000fd5b505050506040513d601f19601f8201168201806040525081019061017d91906109c2565b6040516323b872dd60e01b8152336004820152306024820152604481018290529091506001600160a01b038616906323b872dd906064016020604051808303816000875af11580156101d3573d6000803e3d6000fd5b505050506040513d601f19601f820116820180604052508101906101f791906109db565b506040516323b872dd60e01b8152336004820152306024820152604481018790526001600160a01b038816906323b872dd906064016020604051808303816000875af115801561024b573d6000803e3d6000fd5b505050506040513d601f19601f8201168201806040525081019061026f91906109db565b5060405163095ea7b360e01b81526001600160a01b0383811660048301526024820183905286169063095ea7b3906044016020604051808303816000875af11580156102bf573d6000803e3d6000fd5b505050506040513d601f19601f820116820180604052508101906102e391906109db565b5060405163095ea7b360e01b81526001600160a01b0383811660048301526024820188905288169063095ea7b3906044016020604051808303816000875af1158015610333573d6000803e3d6000fd5b505050506040513d601f19601f8201168201806040525081019061035791906109db565b506040516396f4e9f960e01b81526001600160a01b038316906396f4e9f990610386908d9087906004016108f6565b6020604051808303816000875af11580156103a5573d6000803e3d6000fd5b505050506040513d601f19601f820116820180604052508101906103c991906109c2565b9a9950505050505050505050565b6000806103e88686868660006105fa565b6040516320487ded60e01b81529091507f0000000000000000000000000000000000000000000000000000000000000000906000906001600160a01b038316906320487ded9061043e908c9087906004016108f6565b602060405180830381865afa15801561045b573d6000803e3d6000fd5b505050506040513d601f19601f8201168201806040525081019061047f91906109c2565b90503481111561048e57600080fd5b6040516323b872dd60e01b8152336004820152306024820152604481018690526001600160a01b038716906323b872dd906064016020604051808303816000875af11580156104e1573d6000803e3d6000fd5b505050506040513d601f19601f8201168201806040525081019061050591906109db565b5060405163095ea7b360e01b81526001600160a01b0383811660048301526024820187905287169063095ea7b3906044016020604051808303816000875af1158015610555573d6000803e3d6000fd5b505050506040513d601f19601f8201168201806040525081019061057991906109db565b506040516396f4e9f960e01b81526001600160a01b038316906396f4e9f99083906105aa908d9088906004016108f6565b60206040518083038185885af11580156105c8573d6000803e3d6000fd5b50505050506040513d601f19601f820116820180604052508101906105ed91906109c2565b9998505050505050505050565b6106356040518060a0016040528060608152602001606081526020016060815260200160006001600160a01b03168152602001606081525090565b604080516001808252818301909252600091816020015b604080518082019091526000808252602082015281526020019060019003908161064c57905050905060006040518060400160405280876001600160a01b0316815260200186815250905080826000815181106106ab576106ab610a04565b60209081029190910101526040805160a081019091526001600160a01b03891660c08201526000908060e081016040516020818303038152906040528152602001896040516020016106fd9190610a1a565b6040516020818303038152906040528152602001848152602001866001600160a01b031681526020016107786040518060200160405280621e848081525060408051915160248084019190915281518084039091018152604490920190526020810180516001600160e01b03166397a657c960e01b17905290565b90529998505050505050505050565b803567ffffffffffffffff8116811461079f57600080fd5b919050565b6001600160a01b03811681146107b957600080fd5b50565b600060a082840312156107ce57600080fd5b50919050565b60008060008060008061014087890312156107ee57600080fd5b6107f787610787565b95506020870135610807816107a4565b945061081688604089016107bc565b935060e0870135610826816107a4565b9250610100870135915061012087013561083f816107a4565b809150509295509295509295565b6000806000806000610120868803121561086657600080fd5b61086f86610787565b9450602086013561087f816107a4565b935061088e87604088016107bc565b925060e086013561089e816107a4565b94979396509194610100013592915050565b6000815180845260005b818110156108d6576020818501810151868301820152016108ba565b506000602082860101526020601f19601f83011685010191505092915050565b6000604067ffffffffffffffff8516835260208181850152845160a08386015261092360e08601826108b0565b905081860151603f198087840301606088015261094083836108b0565b88860151888203830160808a01528051808352908601945060009350908501905b8084101561099357845180516001600160a01b0316835286015186830152938501936001939093019290860190610961565b5060608901516001600160a01b031660a08901526080890151888203830160c08a015295506103c981876108b0565b6000602082840312156109d457600080fd5b5051919050565b6000602082840312156109ed57600080fd5b815180151581146109fd57600080fd5b9392505050565b634e487b7160e01b600052603260045260246000fd5b60a081018235610a29816107a4565b6001600160a01b0390811683526020848101359084015260408401359062ffffff8216808314610a5857600080fd5b604085015260608501359150610a6d826107a4565b9081166060840152608084013590610a84826107a4565b808216608085015250509291505056fea2646970667358221220cb61cfcc4e18ee1ecfd66779d08a541f1856588886710f4608ef890ad861ba7764736f6c63430008150033",
    "linkReferences": {}
  },
  "methodIdentifiers": {
    "ccipRouter()": "0de22984",
    "swapWithNative(uint64,address,(address,uint256,uint24,uint160,address),address,uint256)": "5b15139b",
    "swapWithToken(uint64,address,(address,uint256,uint24,uint160,address),address,uint256,address)": "45b3c9c0"
  },
  "id": 11
}